:1000000005308A001E2D00005434E939A0347310E5
:10001000743465100A10F630EC3A65103D10253343
:1000200020100000323084008313000803192628B2
:100030000130F800F701F70B1B28F80B1A284A309B
:10004000F700F70B21282428800B18280800390E08
:10005000F039F7000F300805770488000000081415
:100060003128081008000808F700080E0F39F800BA
:1000700008008316081088100811831288100F30AA
:1000800083160805F038880083120815000008144C
:10009000000033207808B9000810000008140000A0
:1000A00033207808B80008100F3083160805880040
:1000B0008312390EF700F030F70577083804F8009E
:1000C0007808B800B81B3F28361C881036188814EA
:1000D0000000081100000810370EB8000F30B805F6
:1000E0003808B900272037080F39B800B900272091
:1000F00008002830A5000C30A6000130A70006300B
:10010000A8000810881008110F3083160805880011
:100110000810881008110F308312B200122001302D
:10012000A4002408033C031C9D280330B9002720A9
:100130000530B2001220A40A91280230B90027200D
:100140000530B2001220A4012408033C031CB4288B
:1001500025302407840083130008A900B60129086C
:10016000B7003920A40AA4288A110A122B2D8E3038
:10017000F7002708F8002608F900FA01F808031D1F
:10018000CB287908F800F9010830F702F808031DB8
:10019000CB28F701D3280310F81BD228F90DF80D4E
:1001A000F703CB28F8138A110A124F2D31080319CF
:1001B0004629B900350803194629B9070318E72865
:1001C0007F30B902031C462903194629EB288130E8
:1001D000B907031846293908F700F801F901FA01AF
:1001E0003208BD00BD173308BC003408BB0018300E
:1001F000B900BA013B1C14293808FA07031C062968
:10020000F90A031D0629F80A0319BA173708F9076E
:10021000031C0D29F80A0319BA173608B300B317DF
:100220003308F8070318BA17BA0DF80CF90CFA0CD2
:10023000BD0CBC0CBB0C0310B90BF9280130F7073F
:1002400003184629F81B2B29BD0DFA0DF90DF80DE1
:10025000F70303194629BD1F3C29FA0A031D3C294F
:10026000F90A031D3C29F80A031D3C29F80CF90C76
:10027000FA0CF70A031946293208BA003608BA06FA
:10028000BA1F4429F8174A29F8134A29F701F80137
:10029000F901FA01080028080319102AB4002C08F3
:1002A0000319102AB402031C5A297F30B40703181B
:1002B000102A60298130B402031C102A0319102A65
:1002C0003408F700F801F901FA01B3012908B20076
:1002D000B2172A08B1002B08B0001930B4002F085B
:1002E000B002031883290130B10203188329B20236
:1002F00003188329B30203188329B30AB20AB10A87
:100300002F08B007B5292E08B10203189E29013025
:10031000B20203189E29B30203189E29B30AB20A37
:100320002E08B1072F08B007031CB529B10A031D19
:10033000B529B20A031DB529B30AB5292D0880389D
:10034000B2020318B4290130B3020318B429B30A66
:100350002D088038B2072E08B107031C9229B20A73
:10036000031D9229B30A92297A14B40BB829C32920
:100370000310B00DB10DB20DB30D0310FA0DF90D50
:10038000F80DB50D6F29351CCB290310F80CF90CAD
:10039000FA0CB50CCE29F7030319102AB51BF7295F
:1003A0000310B00DB10DB20DB30D2F08B00203183C
:1003B000E3290130B1020318E329B2020318E3294B
:1003C000B302031C062A2E08B1020318EE290130DD
:1003D000B2020318EE29B302031C062A2D08803846
:1003E000B2020318F7290130B302031C062AFA0AE5
:1003F000031D062AF90A031D062AF80A031D062A08
:10040000F70A0319102AF80CF90CFA0C2908B400A1
:100410002D08B406B41F0E2AF817142AF813142A4C
:10042000F701F801F901FA01080080308318AD06E0
:10043000B201B3012908B1002D08B106280803193B
:10044000052BB000F7002C0803190E2BB00203197E
:10045000AA2A031C682A2D08B600B6172E08B50074
:100460002F08B400B3010310B60CB50CB40CB30CD8
:10047000B00B322AB11F3F2A3214222B3210301017
:1004800032162B3084008313372B3212B11B522AC1
:10049000301C5D2AB60CB50CB40CB30CF70A03196A
:1004A0001D2B5D2AB61B602A0310B30DB40DB50DCC
:1004B000B60DF70303191D2B522A3217CA2A32131D
:1004C0002908B100B11F662AB617162BB613162BD2
:1004D0002C08B000F7002808B0022908B600B617AB
:1004E0002A08B5002B08B400B3010310B60CB50CF4
:1004F000B40CB30CB00B742AB11F812AB214222B96
:10050000B2103010B2162F3084008313372BB21282
:10051000B11B942A301C9F2AB60CB50CB40CB30C3A
:10052000F70A03191D2B9F2AB61BA22A0310B30D2D
:10053000B40DB50DB60DF70303191D2B942AB21790
:10054000CA2AB2132D08B100B11FA82AB617162B5C
:10055000B613162B2D08B600B6172E08B5002F08B7
:10056000B400B11FB72AB6133215222B3211B301D2
:1005700030102B3084008313372BB11BE02A29085D
:10058000B100301CCA2AB60CB50CB40CB30CF70A77
:1005900003191D2BB31FDB2AB40A031DDB2AB50A7E
:1005A000031DDB2AB60A031DDB2AB60CB50CB40CFE
:1005B000F70A03191D2B321B5F2AB21BA12AFF2A3F
:1005C0008030B606B61FE82A222B2D08B100F52A86
:1005D0002908B100B608031DF52AB508031DF52A40
:1005E000B408031DF52AF701162BB61BFF2A0310CA
:1005F000B30DB40DB50DB60DF70BF52A1D2BB11FBC
:10060000032BB617162BB613162B2C08F7002D0844
:10061000B6002E08B5002F08B400162B2808F700E6
:100620002908B6002A08B5002B08B4003608F800DF
:100630003508F9003408FA00552BF701F801F901E3
:10064000FA01552BB301B409B509B609B309B30AC8
:10065000031D302BB40A031D302BB50A0319B60A4B
:1006600032183E2AB218802A3219B62AE52A000822
:10067000B407031C412BB50A031D412BB60A03190D
:10068000301484030008B507031C492BB60A03196C
:10069000301484030008801F803AB6070318301412
:1006A000321A452AB21A872ABD2A0800330B592B61
:1006B0005C2B4030B4005D2BB40101303202B40732
:1006C00034088038B500B6013508B7003920080075
:1006D0003108073A0319762B0B3A03197B2B063A9C
:1006E0000319832B023A0319892B8E2B0130B20098
:1006F000B3005623932BB6010130B70039200230E6
:10070000B2001220932B0130B2000230B300562306
:10071000932BB6011030B7003920932B0130B6006F
:100720003108B700392008000B08A5008B13831689
:1007300003178C170C140000000083120313A51B71
:100740008B170318CB2B03170C087F390313A50055
:1007500003170D080313A60003170F080313A700C0
:100760002508B1006823260803178D000313270806
:1007700003178F0003130B08A8008B1383160317AE
:100780008C170C140000000083120313A81B8B1796
:10079000A40BCB2BEA2B03170C0D0E0D7F39031383
:1007A000A50003170D080313A60003170F08031372
:1007B000A7002508B1006823260803178D0003133E
:1007C000270803178F008D0A03198F0A03100313DC
:1007D000A40B942B8A110A12D22D8318F22B3930D4
:1007E00084008313F701F801F901FA01B901BA0194
:1007F000BB01BC0138083704360435040319302C1A
:100800002030BD000310B10DB20DB30DB40DB90D04
:10081000BA0DBB0DBC0D38083C02031D192C37085E
:100820003B02031D192C36083A02031D192C35080A
:100830003902031C2A2C3508B9023608031C360F6E
:10084000BA023708031C370FBB023808031C380FE5
:10085000BC020314F70DF80DF90DFA0DBD0B022CB7
:1008600039088000840A3A088000840A3B08800026
:10087000840A3C08800008000408A9002808AB008E
:1008800003195B2C2708B4002608B3002508B20022
:100890002408B100B801B7012030B6008230B5009D
:1008A000D6207A08A7007908A6007808A50077085E
:1008B000A400AB0B422C2708B4002608B30025087F
:1008C000B2002408B1003108B63CB100FA01320888
:1008D000B500B2170310B20CB30CB40CFA0CF90C3F
:1008E000F80CF70CB10B6A2CB51F812CF709F8092D
:1008F000F909FA09F70A0319F80A0319F90A031999
:10090000FA0A7A08A7007908A6007808A5007708EF
:10091000A400A71F982CA903A916A409A509A60934
:10092000A709A40A0319A50A0319A60A0319A70A05
:100930003B30B0009A30AF00CA30AE00AD010A3093
:10094000AB0028080319A90A8314243084008313F8
:100950002708B4002608B3002508B2002408B10017
:100960003008B8002F08B7002E08B6002D08B500D3
:10097000ED237808F708031DD02C280A2B02031951
:10098000D02C29080319D22C0F392B020319CA2C99
:100990000318022DA91B022D291BD22C2030FE2C5E
:1009A0002030A905A91EE02CA9122808031DA903BF
:1009B0007708A9002D30B10068232908F700A901A4
:1009C00028082B02031DEE2C7708A9002E30B10059
:1009D00068232908F7002030A90500303030A91E0F
:1009E000FE2CA9122808031DA9037708A9002D30A1
:1009F000B10068232908F700A9013030F70777080C
:100A0000B100682383103008B4002F08B3002E080B
:100A1000B2002D08B100B801B701B6010A30B50027
:100A2000ED237A08B0007908AF007808AE007708A7
:100A3000AD00AB0BA42C8A110A12DF2D03081F395D
:100A4000830083161F149F141F159F1107309C00ED
:100A500083138312792883161F1383121F179F177E
:100A600083169F1783121F1483161F109F101F11C8
:100A70009F110030F80083121F08C73978049F00C7
:100A80001F151F19412D1E08FA0083161E08831218
:100A9000A4001E08A500A7002408A600B7287A080D
:100AA000B4007908B3007808B2007708B100B80143
:100AB000B7012030B6007730B500D6207A08A700FD
:100AC0007908A6007808A5007708A4007A08AB008A
:100AD0007908AA007808A9007708A800AF01AE013C
:100AE0002030AD008130AC004B217A08A700790896
:100AF000A6007808A5007708A40083107A08AB0048
:100B00007908AA007808A9007708A8005C30AF002F
:100B10008F30AE004230AD007B30AC0015227A0839
:100B2000A7007908A6007808A5007708A4007A082D
:100B3000AB007908AA007808A9007708A800BC30A3
:100B4000AF007430AE001330AD007830AC004B21F4
:100B50007A08A3007908A2007808A1007708A0000D
:100B600083142308AB002208AA002108A90020084A
:100B7000A8003330AF00AE00AD007F30AC001522CE
:100B80007A08A3007908A2007808A1007708A000DD
:100B9000043003178D0000308F000310163003134C
:100BA000A400942B893084002308A7002208A60003
:100BB0002108A5002008A4000230A8003C2C203009
:100BC000B10068232030B10068238316392D6300FB
:02400E00432F3E
:00000001FF
;PIC16F877A
;CRC=D8D5  CREATED="30-Oct-20 21:39"
