:1000000002308A00302A0000FF00030E8301A100A5
:100010000A08A0008A010408A2007708A300780853
:10002000A4007908A5007A08A60003170D08031399
:10003000A70003170F080313A80003170C080313E6
:10004000A90003170E080313AA00831383128C3030
:100050008400801E2D288C1A4E2822088400230834
:10006000F7002408F8002508F9002608FA002708F8
:1000700003178D000313280803178F0003132908A3
:1000800003178C0003132A0803178E00031320089C
:100090008A00210E8300FF0E7F0E09008A110A12CA
:1000A000A2290A108A100A1182076D346F3468344D
:1000B00000347B3084008313000803196628A530C0
:1000C000F700F70B61280000800B5F2808008316FB
:1000D000220EF039F7000F308312080577048800EC
:1000E000000008140000081008000808F700080EB7
:1000F0000F39F800080083160810881008118312C1
:1001000088100F3083160805F03888008312081510
:10011000000008140000752078088316A2008312DE
:10012000081000000814752078088316A1008312B7
:1001300008100F30831608058800220EF700F030F3
:10014000F70577082104F8007808A100A11FAA2864
:10015000831281287E18AF288312881083167E1C94
:10016000B42883128814831600008312081100003B
:1001700008108316200EA1000F30A1052108A2004F
:1001800083126720831620080F39A100A200831272
:10019000672008002830F3000C30F4000130F5002F
:1001A0000630F6000810881008110F308316080575
:1001B00088000810881008110F30FB0083125920A6
:1001C0000130F2007208033C031CF0280330831650
:1001D000A200831267200530FB005920F20AE228B2
:1001E00002308316A200831267200530FB005920DD
:1001F000F2017208033C031C0B2973307207840060
:1002000083130008FB00FE017B088316A000831205
:100210007B20F20AF92808007B0B0F2912294030B5
:10022000FC001329FC0101307602FC077C088038B1
:10023000FD00FE017D088316A00083127B200800CC
:100240007508073A03192E290B3A03193329063A80
:1002500003193D29023A031943294A290130F600BE
:10026000FB000C215129FE0101308316A0008312EE
:100270007B200230FB00592051290130F60002306A
:10028000FB000C215129FE0110308316A0008312BF
:100290007B2051290130FE0075088316A0008312CF
:1002A0007B2008000B08F2008B13831603178C17B2
:1002B0000C1400000000F21F6229831203138B1735
:1002C0008316031783120C087F390319A029F20043
:1002D0000D08F3000F08F4007208F5000313202145
:1002E000730803178D0074088F0003130B08F500C3
:1002F0008B13831603178C170C1400000000F51FD6
:100300008629831203138B178316031783120C0D90
:100310000E0D7F390319A029F2000D08F3000F0814
:10032000F4007208F50003132021730803178D00F1
:1003300074088F008D0A03198F0A031352290317BB
:10034000031308003C30840083138403840A8C1E4A
:10035000A7291A0880000D300002031DA62980017C
:10036000F3013C30F200F5012D30F4007308FA007F
:100370007208840083137A1883170008F600750842
:10038000FA007408840083137A1883170008760231
:10039000031DE1297308FA007208840083137A1898
:1003A00083178008031DD7290030F800F929730846
:1003B000FA007208F20A0319F30AF40A0319F50A9B
:1003C000B6297308FA007208840083137318831720
:1003D0000008F6007508FA00740884008313751885
:1003E0008317000876020318F729FF30F829013037
:1003F000F800F8080319092ACA200130F600FB00AA
:100400000C21193003178D0002308F000313522185
:10041000152ACA200130F600FB000C2123300317F7
:100420008D0002308F00031352218C128A110A12A0
:100430002D288C24CE214F29D222432A0A28C129D3
:10044000D32B4F2944008C20A0316F39F232633A0C
:100450002038E139F33B6F396405E7376F3200002C
:1004600003081F3983000C3083169900A6309800CA
:10047000903083129800EF01EE0183161F149F1431
:100480001F159F1107309C0083138312AB01AC0131
:10049000C0308B0483168C16F001F1012D308400DE
:1004A000831370088407710883125120800000387C
:1004B00003195F2AF10AF00A83164E2A83125F2A73
:0204C0006300D7
:02400E00412F40
:00000001FF
;PIC16F877A
;CRC=D941  CREATED="24-Oct-20 22:32"
