:1000000001308A0035290000FF00030E8301A100A2
:100010000A08A0008A010408A2007708A300780853
:10002000A4007908A5007A08A600831383128C30F7
:100030008400801E1D288C1A2E2822088400230884
:10004000F7002408F8002508F9002608FA0020081F
:100050008A00210E8300FF0E7F0E09008A110A120A
:1000600031282930840083138403840A8C1E3628A7
:100070001A0880000D300002031D352880018C1203
:100080008A110A121D2862308400831300080319A4
:100090005028A530F700F70B4B280000800B4928AB
:1000A0000800670EF039F7000F3008057704880064
:1000B000000008140000081008000808F700080EE7
:1000C0000F39F800080083160810881008118312F1
:1000D00088100F3083160805F03888008312081541
:1000E0000000081400005D207808E70008100000F8
:1000F00008145D207808E60008100F308316080504
:1001000088008312670EF700F030F7057708660461
:10011000F8007808E600E61B6928641C881064185B
:1001200088140000081100000810650EE6000F306A
:10013000E6056608E700512065080F39E600E7008C
:10014000512008002830DE000C30DF000130E000D4
:100150000630E1000810881008110F3083160805DA
:1001600088000810881008110F308312E200432025
:100170000130DD005D08033C031CC6280330E700A6
:1001800051200530E2004320DD0ABA280230E700A2
:1001900051200530E2004320DD015D08033C031CD3
:1001A000DD285E305D07840083130008E200E4016F
:1001B0006208E5006320DD0ACD288A110A1253295E
:1001C000610BE328E6284030E200E728E201013035
:1001D0006002E20762088038E300E4016308E5009A
:1001E00063200800800803193229DE010408DD00BD
:1001F0005E10831B5E140008DF005F08073A0319D6
:100200000B290B3A03191029063A03191829023A47
:1002100003191E2923290130E000E100E0202929EB
:10022000E4010130E50063200230E2004320292987
:100230000130E0000230E100E0202929E401103023
:10024000E500632029290130E4005F08E500632010
:1002500029295D08840083135E188317840A031913
:10026000850AF2288A110A125B2903081F398300C4
:100270000C3083169900A6309800903083129800B5
:10028000DC01DB0183161F149F141F159F1107301B
:100290009C0083138312A701A801C0308B0483162E
:1002A0008C168312A2280130E000E100E020293002
:0A02B00084008313F2285329630031
:02400E00412F40
:00000001FF
;PIC16F877A
;CRC=2799  CREATED="24-Oct-20 22:24"
