:1000000002308A001C2A00000A108A100A11820796
:100010006D346F34683461346D346D3465346434F8
:100020000034D732EC31EF3665005036E530F3322C
:10003000A0326E3A6539A03CEF3A7210F030F339D5
:10004000F73772328D060000C7376F322032E13C3D
:100050000000C7376F322031F93200004D30840084
:1000600083130008031942280130F800F701F70B49
:100070003728F80B36284A30F700F70B3D28402880
:10008000800B3428080083160810831208100830EB
:10009000F8004A280000F8175B28F813CF0C031863
:1000A0000814031C081078175B287813F80B4E28E7
:1000B0005928000008141C308400840B5D28602837
:1000C000F81B4D28781B552808000B08CC008B1313
:1000D000831603178C170C140000000083120313FF
:1000E000CC1B8B1703170C087F390319B92803138E
:1000F000CC0003170D080313CD0003170F080313DB
:10010000CE004C08CF0043204D0803178D00031389
:100110004E0803178F0003130B08CF008B138316B1
:1001200003178C170C140000000083120313CF1B5D
:100130008B1703170C0D0E0D7F390319B928031304
:10014000CC0003170D080313CD0003170F0803138A
:10015000CE004C08CF0043204D0803178D00031339
:100160004E0803178F008D0A03198F0A03136528A1
:10017000031703138A110A12612A831606108312C9
:1001800006100830F800C4280000F817D528F81326
:10019000CF0C03180614031C06107817D528781303
:1001A000F80BC828D328000006141C308400840BE8
:1001B000D728DA28F81BC728781BCF2808000B0897
:1001C000CC008B13831603178C170C14000000004F
:1001D00083120313CC1B8B1703170C087F390319E9
:1001E00033290313CC0003170D080313CD000317A5
:1001F0000F080313CE004C08CF00BD204D08031795
:100200008D0003134E0803178F0003130B08CF0054
:100210008B13831603178C170C1400000000831235
:100220000313CF1B8B1703170C0D0E0D7F3903190A
:1002300033290313CC0003170D080313CD00031754
:100240000F080313CE004C08CF00BD204D08031744
:100250008D0003134E0803178F008D0A03198F0AB0
:100260000313DF28031703138A110A12822A831645
:100270008614831286183A290830F700CC01F71744
:100280004F29F7134F29031086180314CC0C771746
:100290004F297713F70B43294C08F8005B291C30D2
:1002A000F71B0730F800F80B53290000F71B412912
:1002B000771B492943298A110A12882A83160810B4
:1002C000831208100830F80065290000F817762915
:1002D000F813CF0C03180814031C0810781776299C
:1002E0007813F80B69297429000008141C30840065
:1002F000840B78297B29F81B6829781B7029080052
:100300004D08FA004C08840083137A1883170008FC
:10031000D0004F08FA004E08840083137A18831720
:1003200000085002031DAB294D08FA004C08840058
:1003300083137A1883178008031DA1290030F80061
:10034000C3294D08FA004C08CC0A0319CD0ACE0A7D
:100350000319CF0A80294D08FA004C088400831342
:100360004D1883170008D0004F08FA004E0884008B
:1003700083134F188317000850020318C129FF3058
:10038000C2290130F8008A110A12A62A0B08CC00F3
:100390008B13831603178C170C14000000008312B4
:1003A0000313CC1B8B1703170C087F3903191A2A68
:1003B0000313CC0003170D080313CD0003170F0818
:1003C0000313CE004C08CF005E214D0803178D00AB
:1003D00003134E0803178F0003130B08CF008B1372
:1003E000831603178C170C140000000083120313EC
:1003F000CF1B8B1703170C0D0E0D7F3903191A2A0B
:100400000313CC0003170D080313CD0003170F08C7
:100410000313CE004C08CF005E214D0803178D005A
:1004200003134E0803178F008D0A03198F0A031355
:10043000C62903170313080003081F398300083077
:10044000A200831608108312081483160610831264
:1004500006148316081083120814FF30CB0083168D
:100460001F149F141F159F1107309C0083138312C4
:10047000A001A101CC01CD012330840083134C08DD
:1004800084074D0804208000003803194A2ACD0A49
:10049000CC0A3C2A0430CC00FA30CD002E20CC0B04
:1004A0004C2AFE30CF0043200130CF0043200A30D9
:1004B000CD002E20113003178D0000308F00031364
:1004C00065283330A20022082F3C0318752A8316B2
:1004D00085018312220885000430CC00FA30CD005B
:1004E0002E20CC0B6E2AA203632AFE30CF004320BD
:1004F0000130CF004320153003178D0000308F00EE
:100500000313DF283730840083138403840A3729D8
:10051000780880000D300002031D862A8001043017
:10052000CC00FA30CD002E20CC0B912AFE30CF002B
:100530005E210130CF005E210A30CD002E20CD019A
:100540003730CC00CF012330CE008029F808031DBE
:100550002D2B243003178D0000308F000313C6218C
:100560000030CB00831687010130831287000430EE
:10057000CC00FA30CD002E20CC0BB92A0030CB00B5
:10058000831687010230831287000430CC00FA30D2
:10059000CD002E20CC0BC72A0030CB00831687015C
:1005A000043083128700CC00FA30CD002E20CC0B13
:1005B000D42A0030CB0083168701083083128700CD
:1005C0000430CC00FA30CD002E20CC0BE22A0030D3
:1005D000CB00831687011030831287000430CC00D3
:1005E000FA30CD002E20CC0BF02A0030CB00831641
:1005F00087012030831287000430CC00FA30CD0010
:100600002E20CC0BFE2A0030CB0083168701403011
:10061000831287000430CC00FA30CD002E20CC0BA2
:100620000C2B0030CB0083168701803083128700AB
:100630000430CC00FA30CD002E20CC0B1A2B003029
:10064000CB0083168701831287010430CC00FA3077
:10065000CD002E20CC0B272B342B293003178D00F7
:0A06600000308F000313C621630071
:02400E00733FFE
:00000001FF
;PIC16F877A
;CRC=F698  CREATED="18-Apr-21 14:28"
