:1000000001308A006329000074396133E6346310DB
:100010003110733A6F380A1074396133E634631063
:100020003210E737000074396133E6346310311061
:10003000F730693A0A1074396133E63463103210CC
:10004000F730693A000174396133E63463103110D6
:10005000E7370A1074396133E63463103210733AAB
:100060006F380000273084008313000803193F28ED
:10007000A530F700F70B3A280000800B382808005D
:100080002D0EF039F7000F300805770488000000C6
:1000900008140000081008000808F700080E0F39BF
:1000A000F8000800831608108810081183128810C1
:1000B0000F3083160805F0388800831208150000F9
:1000C000081400004C207808AD0008100000081447
:1000D0004C207808AC0008100F3083160805880003
:1000E00083122D0EF700F030F70577082C04F80086
:1000F0007808AC00AC1B58282A1C88102A188814D1
:1001000000000811000008102B0EAC000F30AC05E9
:100110002C08AD0040202B080F39AC00AD0040206A
:1001200008002830A3000C30A4000130A5000630E0
:10013000A6000810881008110F30831608058800E3
:100140000810881008110F308312A70032200130E8
:10015000A2002208033C031CB5280330AD00402058
:100160000530A7003220A20AA9280230AD004020A5
:100170000530A7003220A2012208033C031CCC2832
:1001800023302207840083130008A700AA01270850
:10019000AB005220A20ABC288A110A127229270B2E
:1001A000D228D5284030A800D628A8010130260240
:1001B000A80728088038A900AA012908AB00522006
:1001C00008002508073A0319EF280B3A0319F42809
:1001D000063A0319FC28023A0319022907290130BB
:1001E000A600A700CF200C29AA010130AB005220A5
:1001F0000230A70032200C290130A6000230A700EF
:10020000CF200C29AA011030AB0052200C2901305C
:10021000AA002508AB00522008000B08A2008B138F
:10022000831603178C170C140000000083120313AD
:10023000A21B8B1703170C087F39031961290313BD
:10024000A20003170D080313A30003170F080313DD
:10025000A4002208A500E120230803178D00031342
:10026000240803178F0003130B08A5008B138316B4
:1002700003178C170C140000000083120313A51B36
:100280008B1703170C0D0E0D7F390319612903130A
:10029000A20003170D080313A30003170F0803138D
:1002A000A4002208A500E120230803178D000313F2
:1002B000240803178F008D0A03198F0A03130D29D1
:1002C00003170313080003081F398300A101A001CD
:1002D00083161F149F141F159F1107309C00831352
:1002E000831291280C30A500E1200130A600A70060
:1002F000CF20043003178D0000308F0003130D2131
:100300000514831605108312851083168510831239
:100310000511831605118312061083160610831229
:100320008610831686108312061583160611103068
:100330008312A200FA30A7003220A20B9A290C30B7
:10034000A500E1200130A600A700CF20133003173D
:100350008D0000308F0003130D210510831605104A
:1003600083128514831685108312051183160511D7
:1003700083120610831606108312861483168610C5
:10038000831206118316061108308312A200FA3078
:10039000A7003220A20BC7290C30A500E1200130B4
:1003A000A600A700CF20233003178D0000308F0058
:1003B00003130D2105108316051083128510831673
:1003C00085108312051583160511831206148316F2
:1003D0000610831286108316861083120611831668
:1003E000061110308312A200FA30A7003220A20BAF
:0603F000F42972296300EC
:02400E00412F40
:00000001FF
;PIC16F877A
;CRC=830D  CREATED="21-Oct-20 02:14"
