:1000000000308A008F280000C8326C366F16A03688
:100010007910EE30ED32A0347310CD37E830ED3684
:10002000653220004910733A75327910E3376D3824
:10003000753A6539A022EE336937E5327210000156
:10004000C9136D10B219A03CE530F239A0376C32FB
:100050000D000B08A2008B13831603178C170C14CA
:100060000000000083120313A21B8B1703170C0858
:100070007F3903197F280313A20003170D08031308
:10008000A30003170F080313A40022080C1E462820
:100090009900230803178D000313240803178F000A
:1000A00003130B08A5008B13831603178C170C146E
:1000B0000000000083120313A51B8B1703170C0D00
:1000C0000E0D7F3903197F280313A20003170D08B3
:1000D0000313A30003170F080313A40022080C1E28
:1000E0006F289900230803178D00031324080317B2
:1000F0008F008D0A03198F0A03132928031703138E
:100100000800233084008313000803198E28A530CB
:10011000F700F70B89280000800B872808000308E8
:100120001F3983000C3083169900A6309800903058
:1001300083129800A101A00183161F149F141F159C
:100140009F1107309C0083130430831203178D0026
:1001500000308F00031329200430A200FA30A300DE
:100160008120A20BAE28123003178D0000308F00C3
:10017000031329200430A200FA30A3008120A20B2F
:10018000BC28203003178D0000308F000313292076
:100190000430A200FA30A3008120A20BCA28630019
:02400E00412F40
:00000001FF
;PIC16F877A
;CRC=7A64  CREATED="24-Oct-20 22:23"
