:100000000A308A006B2A00000A108A100A110B3E7F
:1000100003188A0A820000340034003400340034AB
:10002000003400345F3400340034003403340034CE
:100030000334003414343E3414343E341434243441
:100040002A347F342A341234433433340834663447
:100050006134363449345534223450340034053454
:1000600003340034003400341C342234413400346E
:100070000034413422341C340034143408343E3407
:1000800008341434083408343E3408340834003456
:100090005034303400340034083408340834083420
:1000A00008340034603460340034003420341034B8
:1000B0000834043402343E345134493445343E3437
:1000C0000034043402347F34003442346134513417
:1000D00049344634223441344934493436341834AE
:1000E000143412347F3410342734453445344534C5
:1000F00039343E34493449344934323401340134DA
:100100007134093407343634493449344934363487
:1001100026344934493449343E3400343634363494
:10012000003400340034563436340034003408349B
:100130001434223441340034143414341434143458
:100140001434003441342234143408340234013479
:100150005134093406343E344134593455345E3414
:100160007E340934093409347E347F3449344934C7
:10017000493436343E3441344134413422347F34BE
:100180004134413441343E347F3449344934493474
:1001900041347F3409340934093401343E34413464
:1001A000413449343A347F340834083408347F34D5
:1001B000003441347F3441340034303440344034EE
:1001C00040343F347F3408341434223441347F3493
:1001D00040344034403440347F3402340C340234F0
:1001E0007F347F340234043408347F343E34413465
:1001F000413441343E347F340934093409340634FF
:100200001E342134213421345E347F3409340934DE
:10021000093476340A148A100A11820726344934C4
:10022000493449343234013401347F3401340134E7
:100230003F344034403440343F341F342034403461
:1002400020341F347F342034103420347F34413440
:1002500022341C34223441340734083470340834D6
:1002600007346134513449344534433400347F34E5
:10027000413400340034023404340834103420345F
:100280000034003441347F34003404340234013407
:100290000234043440344034403440344034003478
:1002A000013402340434003420345434543454348B
:1002B00078347F3444344434443438343834443427
:1002C00044344434443438344434443444347F343F
:1002D00038345434543454341834043404347E34AC
:1002E0000534053408345434543454343C347F34A5
:1002F0000834043404347834003444347D344034D5
:1003000000342034403444343D3400347F341034DD
:10031000283444340034003441347F3440340034D1
:100320007C3404347834043478347C340834043431
:1003300004347834383444344434443438347C34E9
:100340001434143414340834083414341434143485
:100350007C3400347C340834043404344834543459
:10036000543454342034043404343F344434443456
:100370003C344034403420347C341C342034403409
:1003800020341C343C344034303440343C34443425
:1003900028341034283444340C345034503450341D
:1003A0003C344434643454344C34443400340834DD
:1003B000363441344134003400347F340034003466
:1003C00041344134363408340034023401340234C8
:1003D0000434023400308316880006128312061299
:1003E0008316C3080319F929861083128614FC2981
:1003F0008316061083120614000083168801440831
:10040000831288000000831686128312861600006D
:100410008316861283128612831606108312061024
:1004200083168610831286100800F701F8018316E0
:10043000310803103218F707F70CF80CB218F70759
:10044000F70CF80C3219F707F70CF80CB219F7078C
:10045000F70CF80C321AF707F70CF80CB21AF7077A
:10046000F70CF80C321BF707F70CF80CB21BF70768
:10047000F70CF80C83120800201020088316870060
:1004800083120714831686128312861283160610AF
:1004900083120610831686108312861083160611A7
:1004A000831206118316C301C030C4008312EA21EF
:1004B00001308316C300C030C4008312EA218316C2
:1004C000C3014030C4008312EA2101308316C30007
:1004D0004030C4008312EA218316C301B830C4003F
:1004E0008312EA2101308316C300B830C40083129E
:1004F000EA218316200B8A2AC3013F30C4008312ED
:10050000EA2101308316C3003F30C4008312EA2180
:10051000962A8316C3013E30C4008312EA210130BB
:100520008316C3003E30C4008312EA218316A10162
:10053000A2012208073C031CED2A061183120611B2
:100540008316C3014030C4008312EA2101308316B0
:10055000C3004030C4008312EA2183162208B83851
:10056000A400C3012408C4008312EA2183162208D0
:10057000B838A4000130C3002408C4008312EA2163
:1005800083160611831206158316A30123083F3C28
:10059000031CEB2AFF30B1002108B20083121522A0
:1005A00078088316A400C3012408C4008312EA213A
:1005B000FF308316B1002108B2008312152278089B
:1005C0008316A4000130C3002408C4008312EA216A
:1005D0008316A30AC62AA20A992A83128A150A1226
:1005E000C62AA0308400831300080319052B0130AC
:1005F000F800F701F70BFA2AF80BF92A4A30F7004E
:10060000F70B002B032B800BF72A8A150A12CD2A31
:10061000FF30831688000612831206168316C2085E
:100620000319172B8610831286141A2B83160610B3
:1006300083120614000083168612831286160000A9
:10064000FF3083168800831208088316C3008612C1
:1006500083128612831606108312061083168610E4
:100660008312861083164308F8008312080083164D
:1006700040103C083F3C0318402B4030BC02401463
:100680000611831206118316BC133C170030401864
:100690000130C100C3003C08C4008312EA210030CD
:1006A000831640180130C1003D0CF700F70CF70C21
:1006B0001F30F7057708BF39B838C2004108C300BA
:1006C0004208C4008312EA2183160611831206151C
:1006D0000030831640180130C100C2008312082385
:1006E0000030831640180130C100C2008312082375
:1006F00078088316BF003E0B8D2B3D080739C100DB
:100700000130F7004108F80003198A2B0310F70D98
:10071000F80B862B7708BF049D2B3D080739C100D5
:100720000130F7004108F80003199A2B0310F70D68
:10073000F80B962B7708FF3ABF05061183120611B6
:100740000030831640180130C100C3003C08C400CB
:100750008312EA21831606118312061500308316D0
:1007600040180130C100C3003F08C4008312EA21D1
:10077000080001308316B500B600BB012C082E021C
:10078000BC003C08BC1FC62B3C08003CFA01B3006F
:100790007A08B4002D082F02BC003C08BC1FD22BE5
:1007A0003C08003CFA01B1007A08B2002C082E0285
:1007B0000318DC2BFF30B5002D082F020318E22BA5
:1007C000FF30B60032083402031C302C031DEC2B22
:1007D00031083302031C302C0310B10DB20D330865
:1007E0003102F7003208FA003408031C340FFA0211
:1007F0007708B7007A08B80033083702B90038081C
:10080000BA003408031C340FBA02B408031D0C2CC0
:100810003B083302031C2F2C2C08BC002D08BD0004
:100820003008BE00831237238316B81F212C3108ED
:10083000B70732080318320FB80735082C07AC0089
:100840002D2C3908B7073A0803183A0FB8073508AE
:100850002C07AC0036082D07AD00BB0A052C732C05
:100860000310B30DB40D31083302F7003408FA0059
:100870003208031C320FFA027708B7007A08B80072
:1008800031083702B9003808BA003208031C320FA9
:10089000BA02B208031D502C3B083102031C732C12
:1008A0002C08BC002D08BD003008BE008312372381
:1008B0008316B81F652C3308B70734080318340FA4
:1008C000B80736082D07AD00712C3908B7073A086C
:1008D00003183A0FB80735082C07AC0036082D0767
:1008E000AD00BB0A492C831208008316A508031922
:1008F000AB2C230821020318822C2108A80023080E
:10090000A900862C2308A8002108A9002408220297
:1009100003188F2C2208AA002408AB00932C24086B
:10092000AA002208AB0028082902031CAA2C2A08C6
:10093000A70027082B02031CA82C2808BC002708A6
:10094000BD002608BE00831237238316A70A992C00
:10095000A80A932CDF2C2108AC002208AD00230844
:10096000AE002208AF002608B0008312B923831618
:100970002108AC002408AD002308AE002408AF0015
:100980002608B0008312B92383162108AC00220880
:10099000AD002108AE002408AF002608B000831285
:1009A000B92383162308AC002208AD002308AE004B
:1009B0002408AF002608B0008312B92383168312DF
:1009C000080083162308FA002208840083137A188B
:1009D000831780080319D72D2308FA002208840002
:1009E00083137A1883170008523C031C1C2D23081C
:1009F000FA002208840083137A188317203000023B
:100A0000B000B1000530B2008312152278088316B9
:100A1000AF00F8000530F700AA308400831378088F
:100A2000831204208000F80A840AF70B182D1A2D6F
:100A300083160F2D522D83162308FA0022088400F6
:100A400083137A18831700087E3C031C4C2D23085F
:100A5000FA002208840083137A18831753300002A7
:100A6000B000B1000530B200831215227808831659
:100A7000AF00F8000530F700AA308400831378082F
:100A800083120A218000F80A840AF70B482D4A2DA8
:100A900083163F2D522D8316AA01AB01AC01AD0187
:100AA000AE01831283162308FA0022088400831300
:100AB0007A18831700080A3A83120319632D073A3C
:100AC0000319702D742D07308316B1002408B2006D
:100AD00083121522013078078316A107D22D8312C5
:100AE0008316A001D22D831205308316B10024088D
:100AF000B200831215227808831620077F3C031862
:100B00008C2DA0010730B1002408B20083121522F9
:100B1000013078078316A107A6012608043C031CB0
:100B2000D22DA7012708063C031CCE2DAA3026078C
:100B3000840083130008AF00F7002708F8000319AA
:100B4000A52D0310F70CF80BA12D771CCC2DA801B7
:100B5000240828020318CC2DA9012408290203180F
:100B6000CA2D29082007AF002708B1002408B200C9
:100B7000831215227808831621072807B0002F0852
:100B8000BC003008BD002508BE0083123723831641
:100B9000A90AAD2DA80AA82DA70A922DA60A2408F5
:100BA000A0078D2DA20A0319A30AA00AE22C831222
:100BB00008008E30F70083162308F8002208F90099
:100BC000FA01F808031DEE2D7908F800F901083044
:100BD000F702F808031DEE2DF701F62D0310F81BA0
:100BE000F52DF90DF80DF703EE2DF81383128A1584
:100BF0000A120E2B83162D0803196B2EB50031082F
:100C000003196B2EB50703180C2E7F30B502031C99
:100C10006B2E03196B2E102E8130B50703186B2E27
:100C20003508F700F801F901FA012E08B900B917E3
:100C30002F08B8003008B7001830B500B601371CCF
:100C4000392E3408FA07031C2B2EF90A031D2B2E0C
:100C5000F80A0319B6173308F907031C322EF80AED
:100C60000319B6173208AF00AF172F08F80703189B
:100C7000B617B60DF80CF90CFA0CB90CB80CB70C89
:100C80000310B50B1E2E0130F70703186B2EF81B4F
:100C9000502EB90DFA0DF90DF80DF70303196B2E4F
:100CA000B91F612EFA0A031D612EF90A031D612E78
:100CB000F80A031D612EF80CF90CFA0CF70A031957
:100CC0006B2E2E08B6003208B606B61F692EF8172E
:100CD0006F2EF8136F2EF701F801F901FA01831254
:100CE0000800831624080319372FB00028080319B9
:100CF000372FB002031C812E7F30B0070318372F27
:100D0000872E8130B002031C372F0319372F30088C
:100D1000F700F801F901FA01AF012508AE00AE179E
:100D20002608AD002708AC001930B0002B08AC0233
:100D30000318AA2E0130AD020318AA2EAE02031822
:100D4000AA2EAF020318AA2EAF0AAE0AAD0A2B08CC
:100D5000AC07DC2E2A08AD020318C52E0130AE0206
:100D60000318C52EAF020318C52EAF0AAE0A2A0813
:100D7000AD072B08AC07031CDC2EAD0A031DDC2ECF
:100D8000AE0A031DDC2EAF0ADC2E29088038AE0225
:100D90000318DB2E0130AF020318DB2EAF0A29083F
:100DA0008038AE072A08AD07031CB92EAE0A031D12
:100DB000B92EAF0AB92E7A14B00BDF2EEA2E03102B
:100DC000AC0DAD0DAE0DAF0D0310FA0DF90DF80D14
:100DD000B10D962E311CF22E0310F80CF90CFA0C02
:100DE000B10CF52EF7030319372FB11B1E2F03107B
:100DF000AC0DAD0DAE0DAF0D2B08AC0203180A2FD4
:100E00000130AD0203180A2FAE0203180A2FAF02F9
:100E1000031C2D2F2A08AD020318152F0130AE0236
:100E20000318152FAF02031C2D2F29088038AE029E
:100E300003181E2F0130AF02031C2D2FFA0A031DC9
:100E40002D2FF90A031D2D2FF80A031D2D2FF70A48
:100E50000319372FF80CF90CFA0C2508B0002908F3
:100E6000B006B01F352FF8173B2FF8133B2FF701B3
:100E7000F801F901FA01831208008318422FB530F6
:100E800084008313F701F801F901FA018316B50113
:100E9000B601B701B8013408330432043104031930
:100EA000812F2030B9000310AD0DAE0DAF0DB00D88
:100EB000B50DB60DB70DB80D34083802031D6A2FF5
:100EC00033083702031D6A2F32083602031D6A2FCA
:100ED00031083502031C7B2F3108B5023208031C90
:100EE000320FB6023308031C330FB7023408031C59
:100EF000340FB8020314F70DF80DF90DFA0DB90B04
:100F0000532F35088000840A36088000840A370889
:100F10008000840A38088000831208004C0884008E
:100F200083134D18831783162D088000840A8001CF
:100F30008312CC0A0319CD0A080083162108FA008F
:100F40002008840083137A1883170008A40023085C
:100F5000FA002208840083137A18831700082402F9
:100F6000031DC92F2108FA002008840083137A1872
:100F700083178008031DBF2F0030F800E12F2108E0
:100F8000FA002008A00A0319A10AA20A0319A30A59
:100F90009E2F2108FA00200884008313211883174C
:100FA0000008A4002308FA002208840083132318F1
:100FB0008317000824020318DF2FFF30E02F0130D1
:060FC000F8008312080096
:101000008030831C06288316A90683128316AE013E
:10101000AF012508AD002908AD0624080319F428FE
:10102000AC00F70028080319FD28AC020319992821
:10103000031C57282908B200B2172A08B1002B0850
:10104000B000AF010310B20CB10CB00CAF0CAC0B84
:101050002128AD1F2E282E1411292E102C102E16EB
:10106000A7308400831326292E12AD1B41282C1C87
:101070004C28B20CB10CB00CAF0CF70A03190C29B8
:101080004C28B21B4F280310AF0DB00DB10DB20D9F
:10109000F70303190C2941282E17B9282E13250808
:1010A000AD00AD1F5528B2170529B2130529280830
:1010B000AC00F7002408AC022508B200B2172608DD
:1010C000B1002708B000AF010310B20CB10CB00C96
:1010D000AF0CAC0B6328AD1F7028AE141129AE10F5
:1010E0002C10AE16AB30840083132629AE12AD1B34
:1010F00083282C1C8E28B20CB10CB00CAF0CF70A54
:1011000003190C298E28B21B91280310AF0DB00DC6
:10111000B10DB20DF70303190C298328AE17B928B6
:10112000AE132908AD00AD1F9728B2170529B213D9
:1011300005292908B200B2172A08B1002B08B0000F
:10114000AD1FA628B2132E1511292E11AF012C1098
:10115000A730840083132629AD1BCF282508AD00B6
:101160002C1CB928B20CB10CB00CAF0CF70A031947
:101170000C29AF1FCA28B00A031DCA28B10A031DD3
:10118000CA28B20A031DCA28B20CB10CB00CF70A67
:1011900003190C292E1B4E28AE1B9028EE288030F8
:1011A000B206B21FD72811292908AD00E428250866
:1011B000AD00B208031DE428B108031DE428B008FF
:1011C000031DE428F7010529B21BEE280310AF0D1B
:1011D000B00DB10DB20DF70BE4280C29AD1FF228AC
:1011E000B2170529B21305292808F7002908B2000B
:1011F0002A08B1002B08B00005292408F7002508AB
:10120000B2002608B1002708B0003208F800310803
:10121000F9003008FA004429F701F801F901FA0150
:101220004429AF01B009B109B209AF09AF0A031DE2
:101230001F29B00A031D1F29B10A0319B20A2E186B
:101240002D28AE186F282E19A528D4280008B0071D
:10125000031C3029B10A031D3029B20A03192C14CA
:1012600084030008B107031C3829B20A03192C149F
:1012700084030008801F803AB20703182C142E1A2A
:101280003428AE1A7628AC28831208000408831686
:10129000A5002408A70003196A292308B000220822
:1012A000AF002108AE002008AD00B401B30120302A
:1012B000B2008230B1008A118312FA258A157A08A9
:1012C0008316A3007908A2007808A1007708A0007F
:1012D000A70B4D292308B0002208AF002108AE005B
:1012E0002008AD002D08B63CAD00FA012E08B10073
:1012F000AE170310AE0CAF0CB00CFA0CF90CF80CD6
:10130000F70CAD0B7929B11F9029F709F809F909F4
:10131000FA09F70A0319F80A0319F90A0319FA0A6C
:101320007A08A3007908A2007808A1007708A00035
:10133000A31FA729A503A516A009A109A209A3090E
:10134000A00A0319A10A0319A20A0319A30A3B3030
:10135000AC009A30AB00CA30AA00A9010A30A7003D
:1013600024080319A50A8314A030840083132308DA
:10137000B0002208AF002108AE002008AD002C0804
:10138000B4002B08B3002A08B2002908B1008A1162
:1013900083123D278A157808F708031DE62983166E
:1013A000240A2702031DD6298312E62925080319DA
:1013B000E9290F3927020319DF290318292AA51B58
:1013C000292A251BE9292030212A8312203083165F
:1013D000A505A51EFB29A5122408031DA503770852
:1013E000A5002D30AD008A1183128E278A15831631
:1013F0002508F700A50124082702031D0D2A7708F8
:10140000A5002E30AD008A1183128E278A1583160F
:101410002508F7002030A50500303030A51E212A10
:10142000A5122408031DA5037708A5002D30AD00E3
:101430008A1183128E278A1583162508F700A501C5
:101440003030F7077708AD008A1183128E278A158E
:10145000831683102C08B0002B08AF002A08AE00BA
:101460002908AD00B401B301B2010A30B1008A11FC
:1014700083123D278A157A088316AC007908AB00E1
:101480007808AA007708A900A70BB32983128A1548
:101490000A12B62B8E30F70083162008F7022108B7
:1014A000F9002208F800F917F7080319622A031057
:1014B000F908031D5E2AF8080319622AF90CF80CD2
:1014C000F70B572AA11F692AF809F909F80A031925
:1014D000F90A8312080003081F398300FF30A000B7
:1014E000CD01CC0183161F149F141F159F110730C7
:1014F0009C0083138312A101A2014530A7006D3027
:10150000A8006230A9006530AA006430AB00AC00CE
:101510006530AD006430AE002030AF004C30B0001C
:101520006130B1006230B200B3015030B4007230AB
:10153000B5006530B6007330B700B8007530B9003B
:101540007230BA006530BB002030BC007330BD0083
:101550006530BE006E30BF007330C0006F30C10018
:101560007230C200C30183161F1383121F179F1707
:1015700083169F1783121F1483161F109F101F11AD
:101580009F110130A0008A1183123C2A8A150A306B
:101590008316A0008A118312F12A8A1561308316FE
:1015A000A100A2017F30A3003F30A400A5010130BB
:1015B000A6008A11831275248A158316A001A10141
:1015C000A3013430A2000130A400A5008A118312C7
:1015D000E1248A158316A0011430A100A30127304D
:1015E000A2000130A400A5008A118312E1248A150B
:1015F0000030F8001F08C73978049F001F151F1915
:10160000FF2A1E08FA0083161E08A0007A08A1000F
:10161000A3001E08A2008A118312D92D8A157A0808
:101620008316B0007908AF007808AE007708AD00E7
:10163000B401B3012030B2007730B1008A118312B7
:10164000FA258A157A088316A3007908A20078087B
:10165000A1007708A0002308A7002208A6002108FF
:10166000A5002008A400AB01AA012030A900813008
:10167000A8008A11831271268A157A088316A3009E
:101680007908A2007808A1007708A0008310230839
:10169000A7002208A6002108A5002008A4005C30AD
:1016A000AB008F30AA004230A9007B30A800831223
:1016B00000207A088316A3007908A2007808A10008
:1016C0007708A0002308A7002208A6002108A5008B
:1016D0002008A400BC30AB007430AA001330A9006D
:1016E0007830A8008A11831271268A157A08C700FB
:1016F0007908C6007808C5007708C4008314470835
:101700008316A700831246088316A6008312450895
:101710008316A500831244088316A4003330AB005F
:10172000AA00A9007F30A800831200207A08C70011
:101730007908C6007808C5007708C400CD014E308E
:10174000CC008930840047088316A3008312460822
:101750008316A200831245088316A1008312440851
:101760008316A0000230A400831246294B30831652
:10177000AD008A1183128E278A1550308316AD0072
:101780008A1183128E278A1561308316AD008A1163
:1017900083128E278A158316A1014E30A000A30163
:1017A0006230A2008A1183129D278A15F808031956
:1017B000E72B8316A0012830A100A3016230A2000C
:1017C0000230A400A5018A118312E1248A15831630
:1017D000A0012830A100A3014E30A2000230A400D5
:1017E0000130A5008A118312E1248A154708831667
:1017F000A700831246088316A600831245088316A5
:10180000A500831244088316A400AB01AA0170301E
:10181000A9008530A8008A11831271268A157A08DA
:101820008316A3007908A2007808A1007708A00019
:101830002308B0002208AF002108AE002008AD0048
:10184000B401B3014830B2008530B1008A1183126F
:10185000FA258A157A08CB007908CA007808C900E9
:101860007708C8008316B001AF017830AE0084302D
:10187000AD0083124B088316B40083124A08831606
:10188000B300831249088316B200831248088316F6
:10189000B1008A118312FA258A157A088316A300EB
:1018A0007908A2007808A1007708A0002308A70003
:1018B0002208A6002108A5002008A400AB01AA0167
:1018C0004830A9008530A8008A11831271268A1534
:1018D0007A08CB007908CA007808C9007708C800E0
:1018E0008316A1014E30A000A3016230A2008A112C
:1018F00083129D278A15F8080319B52C83148316C3
:10190000A701A6017830A5008430A40083124B08FB
:101910008316AB0083124A088316AA008312490873
:101920008316A900831248088316A800831200209A
:101930007A088316A3007908A2007808A100770826
:10194000A00083124A2278088316A0006230A1000A
:101950002008A2007E30A3003E30A4000130A50084
:10196000A6008A11831275248A1583148316A70191
:10197000A6017830A5008430A40083124B0883169A
:10198000AB0083124A088316AA0083124908831603
:10199000A900831248088316A800831200207A0841
:1019A0008316A3007908A2007808A1007708A00098
:1019B00083124A2278088316A0006230A100013009
:1019C000A2007E30A3002008A4000130A500A601DB
:1019D0008A11831275248A158316A3014E30A20042
:1019E000A1016230A000220884008313231883170A
:1019F0000008A400200884008313211883172408FA
:101A0000800080080319072DA00AA20AF32C831274
:041A1000FE2A630047
:02400E00432F3E
:00000001FF
;PIC16F877A
;CRC=2A1B  CREATED="30-Oct-20 21:42"
