:1000000002308A001E2A0000D73072376937670035
:100010006F34A034F4137310E634F2322010200051
:100020002C30840083130008031924280130F800C1
:10003000F701F70B1928F80B18284A30F700F70BCF
:100040001F282228800B16280800320EF039F700EE
:100050000F30080577048800000008142F280810C6
:1000600008000808F700080E0F39F800080083168A
:10007000081088100811831288100F3083160805A5
:10008000F0388800831208150000081400003120A1
:100090007808B20008100000081400003120780829
:1000A000B10008100F308316080588008312320E45
:1000B000F700F030F70577083104F8007808B10050
:1000C000B11B3D282F1C88102F1888140000081120
:1000D00000000810300EB1000F30B1053108B20039
:1000E000252030080F39B100B20025200800283043
:1000F000A8000C30A9000130AA000630AB0008109F
:10010000881008110F308316080588000810881021
:1001100008110F308312AC0010200130A70027080F
:10012000033C031C9B280330B20025200530AC00A3
:100130001020A70A8F280230B20025200530AC001D
:100140001020A7012708033C031CB22828302707EA
:10015000840083130008AC00AF012C08B0003720E6
:10016000A70AA2288A110A122F2A8E30F7002A081D
:10017000F8002908F900FA01F808031DC9287908D0
:10018000F800F9010830F702F808031DC928F70143
:10019000D1280310F81BD028F90DF80DF703C92852
:1001A000F8138A110A12532A290803194429B100A5
:1001B0002D0803194429B1070318E5287F30B1023F
:1001C000031C442903194429E9288130B107031885
:1001D00044293108F700F801F901FA012A08B500AD
:1001E000B5172B08B4002C08B3001830B100B201C9
:1001F000331C12293008FA07031C0429F90A031DCD
:100200000429F80A0319B2172F08F907031C0B2950
:10021000F80A0319B2172E08AB00AB172B08F80722
:100220000318B217B20DF80CF90CFA0CB50CB40C9B
:10023000B30C0310B10BF7280130F707031844295A
:10024000F81B2929B50DFA0DF90DF80DF70303195F
:100250004429B51F3A29FA0A031D3A29F90A031D50
:100260003A29F80A031D3A29F80CF90CFA0CF70A96
:10027000031944292A08B2002E08B206B21F4229E7
:10028000F8174829F8134829F701F801F901FA018C
:100290008A110A12642A2C0B4E2951294030AD00D4
:1002A0005229AD0101302B02AD072D088038AE0078
:1002B000AF012E08B000372008002A08073A0319BA
:1002C0006B290B3A03197029063A03197829023A67
:1002D00003197E2983290130AB00AC004B2188290A
:1002E000AF010130B00037200230AC001020882967
:1002F0000130AB000230AC004B218829AF01103037
:10030000B000372088290130AF002A08B00037201C
:1003100008002808AF002C08AF06AF1F942903116E
:100320000310A81B0314C7292808AF002B08B0002E
:100330002708B0020319A229AF1FC7290308013AF1
:100340008300C7292C08B0002808B0020319AE2981
:10035000AF1FC7290308013A8300C7292D08B00041
:100360002908B0020319BA29AF1FC7290308013AA7
:100370008300C7292E08B0002A08B0020319C62935
:10038000AF1FC7290308013A8300C72903100800DB
:100390000B08A7008B13831603178C170C1400008F
:1003A000000083120313A71B8B1703170C087F3958
:1003B00003191C2A0313A70003170D080313A80031
:1003C00003170F080313A9002708AA005D212808B6
:1003D00003178D000313290803178F0003130B085D
:1003E000AA008B13831603178C170C14000000004F
:1003F00083120313AA1B8B1703170C0D0E0D7F39E5
:1004000003191C2A0313A70003170D080313A800E0
:1004100003170F080313A9002708AA005D21280865
:1004200003178D000313290803178F008D0A031982
:100430008F0A0313C82903170313080003081F3981
:100440008300A501A401FF30A60083161F149F148A
:100450001F159F1107309C00831383127728831682
:100460001F1383121F179F1783169F1783121F14C2
:1004700083161F109F101F119F110030F800831268
:100480001F08C73978049F001F151F19452A1E0829
:10049000FA0083161E088312A7001E08A800AA00EF
:1004A0002708A900B5287A08AC007908AB007808BD
:1004B000AA007708A9009030B0003E30AF007A3033
:1004C000AE007D30AD00D4287A08A3007908A200E0
:1004D0007808A1007708A0000C30AA005D21AA01CD
:1004E000A9017030A8008430A7002308AE002208BC
:1004F000AD002108AC002008AB008921031CB12A03
:100500002308AA002208A9002108A8002008A700A3
:10051000AE01AD010C30AC008530AB008921031C6D
:10052000B12A043003178D0000308F000313C82157
:100530000130AB00AC004B21F0309D0526112608A0
:1005400083168700831207110C3097000030F800E3
:1005500004389200323083169200193083129500CD
:10056000E52AAA01A9010C30A8008530A7002308BC
:10057000AE002208AD002108AC002008AB008921A4
:10058000031CE22A083003178D0000308F0003138C
:10059000C8210130AB00AC004B21F0309705A6100C
:1005A000260883168700831287100C309D000030C8
:1005B000F8000438920032308316920028308312FB
:0E05C0009B00E52AF03097059D05442A630054
:02400E00412F40
:00000001FF
;PIC16F877A
;CRC=7F01  CREATED="08-Nov-20 23:32"
