:1000000000308A0060280000FF00030E8301A10079
:100010000A08A0008A010408A2007708A300780853
:10002000A4007908A5007A08A600831383128C30F7
:100030008400801E1D288C1A2E2822088400230884
:10004000F7002408F8002508F9002608FA0020081F
:100050008A00210E8300FF0E7F0E09008A110A120A
:1000600031282930840083138403840A8C1E3628A7
:100070001A0880000D300002031D35288001293048
:1000800084008313800803195828DE010408DD006A
:100090005E10831B5E1400080C1E4C2899005D083E
:1000A000840083135E188317840A0319850A422883
:1000B0000D300C1E592899008C128A110A121D2825
:1000C00003081F3983000C3083169900A63098006E
:1000D000903083129800DC01DB0183161F149F14FB
:1000E0001F159F1107309C0083138312A701A801DD
:0C00F000C0308B0483168C167C28630043
:02400E00412F40
:00000001FF
;PIC16F877A
;CRC=5946  CREATED="24-Oct-20 22:31"
