:1000000000308A00DE280000FF00030E8301A100FB
:100010000A08A0008A010408A2007708A300780853
:10002000A4007908A5007A08A600831383120B1E8A
:100030001B288B1832288C308400801E21288C1AB3
:100040003528220884002308F7002408F800250832
:10005000F9002608FA0020088A00210E8300FF0E0E
:100060007F0E09008A110A128A288A110A125A2858
:1000700083168610831286100830F8003F2800008F
:10008000F8175028F813DF0C03188614031C861089
:10009000781750287813F80B43284E280000861450
:1000A0000B308400840B52280000F81B4228781B78
:1000B0004A2808002930840083138403840A8C1E94
:1000C0005F281A0880000D300002031D5E288001A1
:1000D0000C30DF0038202930840083138008031996
:1000E0008328DE010408DD005E10831B5E14000817
:1000F000DF0038205D08840083135E188317840AAC
:100100000319850A6E280D30DF0038208C128A1101
:100110000A1221282930840083138403840A831659
:1001200006148312061892280830F700DD01F7172D
:10013000A728F713A728031006180314DD0C771758
:10014000A7287713F70B9B285D08F800B2280B301F
:10015000F71B0330F800F80BAB28F71B9928771B27
:10016000A1289B28780880000D300002031D8E28EE
:1001700080010C300C1EBA289900293084008313AA
:1001800080080319D628DE010408DD005E10831BF9
:100190005E1400080C1ECA2899005D0884008313B1
:1001A0005E188317840A0319850AC0280D300C1EB7
:1001B000D72899008B108A110A12212803081F39A9
:1001C00083000C3083169900A6309800903083127B
:1001D00098008316861083128614DC01DB018316D7
:1001E0001F149F141F159F1107309C008313831247
:1001F000A701A801C0308B0483168C1683120B163E
:04020000002963006E
:02400E00412F40
:00000001FF
;PIC16F877A
;CRC=43F9  CREATED="24-Oct-20 22:36"
