:1000000000308A000428000003081F39830083168B
:100010001F149F141F159F1107309C008313831218
:100020008611831686118312061283160612831216
:10003000861283168612831206138316061306147D
:1000400083120618AF2886118316861183120616AE
:1000500083160612831286168316861283120617DB
:1000600083160613061483120618462883160810F2
:1000700083120814831688108312881083160811BF
:10008000831208118316881183128811861583162E
:1000900086118312061283160612831286168316A1
:1000A0008612831206178316061306148312061887
:1000B000692883160810831208108316881083128B
:1000C000881083160811831208158316881183126D
:1000D000881186158316861183120616831606125A
:1000E000831286128316861283120617831606134E
:1000F0000614831206188C2883160810831208141D
:100100008316881083128814831608118312081529
:10011000831688118312881186158316861183121F
:10012000061683160612831286168316861283120B
:10013000061383160613061483120618AF288316B7
:1001400008108312081483168810831288148316EB
:1001500008118312081583168811831288158316D7
:1001600086148312861840298611831686118312FD
:1001700006168316061283128616831686128312BB
:10018000061783160613861483128618D72883163B
:10019000081083120810831688108312881483169F
:1001A000081183120811831688118312881186158D
:1001B0008316861183120612831606128312861680
:1001C000831686128312061783160613861483126B
:1001D0008618FA28831608108312081483168810CC
:1001E000831288108316081183120815831688114C
:1001F00083128811861583168611831206168316BC
:10020000061283128612831686128312061783162D
:1002100006138614831286181D298316081083126C
:100220000810831688108312881083160811831211
:100230000811831688118312881586158316861176
:1002400083120616831606128312861683168612EA
:100250008312061383160613861483128618402908
:1002600083160810831208108316881083128810D2
:1002700083160811831208118316881183128811BE
:100280008316061583120619D12986118316861145
:10029000831206168316061283128616831686129A
:1002A000831206178316061306158312061968298A
:1002B000831608108312081483168810831288147A
:1002C000831608118312081183168811831288116E
:1002D0008615831686118312061283160612831260
:1002E00086168316861283120617831606130615C2
:1002F000831206198B29831608108312081083169F
:100300008810831288148316081183120815831627
:10031000881183128811861583168611831206169A
:10032000831606128312861283168612831206170C
:1003300083160613061583120619AE2983160810B4
:1003400083120814831688108312881083160811EC
:100350008312081183168811831288158615831657
:1003600086118312061683160612831286168316CA
:1003700086128312061383160613061583120619B6
:10038000D12983160810831208148316881083124B
:10039000881083160811831208158316881183129A
:0603A0008815102863001F
:02400E00412F40
:00000001FF
;PIC16F877A
;CRC=6E3D  CREATED="21-Oct-20 03:54"
