:1000000000308A000428000003081F398300FF30F5
:10001000A00083161F149F141F159F1107309C000A
:10002000831306148312061C372883168614831242
:10003000861837282011200883168700831207119D
:100040000C309700A01020088316870083128710B9
:100050000C309D000030F80005389200FA3083160D
:100060009200BC30831295007D309B00612883167E
:100070000614831206185E28831686148312861CC3
:100080005E282011200883168700831207110C3088
:100090009700A010200883168700831287100C3069
:1000A0009D000030F8000438920032308316920030
:1000B0001E30831295002B309B006128F03097058D
:0800C0009D0583161128630061
:02400E00412F40
:00000001FF
;PIC16F877A
;CRC=2115  CREATED="08-Nov-20 23:26"
